:020000040800F2
:1000000000000120AD0500082905000831050008A1
:1000100039050008410500084905000800000000F6
:100020000000000000000000000000005105000872
:100030005F050008000000006D0500087B05000852
:10004000FD050008FD050008FD050008FD05000888
:10005000FD050008FD050008FD050008FD05000878
:10006000FD050008FD050008FD050008FD05000868
:10007000FD050008FD050008FD050008FD05000858
:10008000FD050008FD050008FD0500080000000052
:10009000000000000000000000000000FD05000856
:1000A000FD050008FD050008FD050008FD05000828
:1000B000FD050008FD050008FD050008FD05000818
:1000C000FD050008FD050008FD050008FD05000808
:1000D000FD050008FD050008FD0500080000000002
:1000E000FD050008FD050008FD05000800000000F2
:1000F000000000000000000000000000FD050008F6
:1001000000000000FD050008FD050008FD050008D1
:1001100000000000000000000000000000000000DF
:10012000FD050008FD050008FD050008FD050008A7
:10013000FD050008000000000000000000000000B5
:10014000000000000000000000000000FD050008A5
:10015000FD050008FD050008FD050008FD05000877
:10016000FD050008FD05000800000000000000007B
:10017000000000000000000000000000000000007F
:1001800000000000FD050008000000000000000065
:04019000FD05000861
:1001940053B94AB9002908BF00281CBF4FF0FF31EA
:1001A4004FF0FF3000F00CB8ADF1080C6DE904CE4F
:1001B40001F0DEFBDDF804E0DDE9022304B0704762
:1001C400704700BF0348044B834202D0034B03B182
:1001D400184770470C0000200C00002000000000AD
:1001E4000548064B1B1AD90F01EBA301491002D095
:1001F400034B03B1184770470C0000200C0000208B
:100204000000000010B5064C237843B9FFF7DAFF6D
:10021400044B13B10448AFF300800123237010BDD5
:100224000C00002000000000301C000808B5054B3D
:100234001BB105490548AFF30080BDE80840FFF74E
:10024400CFBF00BF0000000010000020301C0008D9
:1002540002440346934200D1704703F8011BF9E7B7
:1002640070B50D4D0D4C641BA4100026A64209D197
:100274000B4D0C4C01F0DAFC641BA4100026A642C2
:1002840005D170BD55F8043B98470136EEE755F8A3
:10029400043B98470136F2E7641D0008641D00081A
:1002A400641D0008681D000880B58AB000AF07F11E
:1002B400140300221A605A609A60DA601A610023FB
:1002C4003B61414B1B6B404A43F0040313633E4BB9
:1002D4001B6B03F004033B613B690023FB603A4B57
:1002E4001B6B394A43F080031363374B1B6B03F0DA
:1002F4008003FB60FB680023BB60334B1B6B324AFB
:1003040043F001031363304B1B6B03F00103BB6029
:10031400BB6800237B602C4B1B6B2B4A43F002030E
:100324001363294B1B6B03F002037B607B68002281
:100334004FF48071254800F06FFD4FF460437B61FA
:100344000323BB610023FB6107F114031946204812
:1003540000F0D0FA03237B610323BB610023FB611C
:1003640007F1140319461B4800F0C4FA4FF6FF7353
:100374007B610323BB610023FB6107F1140319466E
:10038400154800F0B7FA4FF2FF637B610323BB61AA
:100394000023FB6107F1140319460C4800F0AAFA84
:1003A4004FF480737B610123BB610023FB61002355
:1003B4003B6207F114031946044800F09BFA00BF9E
:1003C4002837BD4680BD00BF00380240000402400B
:1003D40000080240001C02400000024080B500AF4B
:1003E40000F00CF900F004F8FFF75EFF00BFFDE732
:1003F40080B594B000AF07F12003302200211846E5
:10040400FFF726FF07F10C0300221A605A609A6076
:10041400DA601A610023BB60234B1B6C224A43F051
:1004240080531364204B1B6C03F08053BB60BB6888
:1004340000237B601D4B1B6823F440431B4A43F499
:1004440000431360194B1B6803F440437B607B68D3
:1004540002233B620123FB6210233B630023BB6343
:1004640007F12003184600F003FD0346002B01D0DA
:1004740000F01EF80F23FB6000233B6100237B6127
:100484000023BB610023FB6107F10C030021184624
:1004940001F01AF80346002B01D000F009F800BF60
:1004A4005037BD4680BD00BF003802400070004098
:1004B40080B400AF72B600BF00BFFDE780B483B064
:1004C40000AF7860396000BF0C37BD465DF8047B2F
:1004D4007047000080B483B000AF00237B60104BF2
:1004E4005B6C0F4A43F4804353640D4B5B6C03F421
:1004F40080437B607B6800233B60094B1B6C084A8C
:1005040043F080531364064B1B6C03F080533B6031
:100514003B6800BF0C37BD465DF8047B704700BFE5
:100524000038024080B400AF00BFFDE780B400AFE4
:1005340000BFFDE780B400AF00BFFDE780B400AFAB
:1005440000BFFDE780B400AF00BFFDE780B400AF9B
:1005540000BFBD465DF8047B704780B400AF00BFA8
:10056400BD465DF8047B704780B400AF00BFBD4654
:100574005DF8047B704780B500AF00F091F800BFD0
:1005840080BD000080B400AF064BD3F88830054A24
:1005940043F47003C2F8883000BFBD465DF8047BA5
:1005A400704700BF00ED00E0DFF834D0FFF7EAFF4A
:1005B4000C480D490D4A002302E0D458C4500433BA
:1005C400C4188C42F9D30A4A0A4C002301E0136090
:1005D4000432A242FBD3FFF743FEFFF7FFFE70474E
:1005E40000000120000000200C0000206C1D000809
:1005F4000C0000202C000020FEE7000080B500AFB6
:100604000E4B1B680D4A43F4007313600B4B1B68BD
:100614000A4A43F480631360084B1B68074A43F497
:1006240080731360032000F00DF90F2000F008F828
:10063400FFF750FF0023184680BD00BF003C024076
:1006440080B582B000AF7860124B1A68124B1B78E9
:1006540019464FF47A73B3FBF1F3B2FBF3F3184684
:1006640000F03CF90346002B01D001230EE07B6827
:100674000F2B0AD8002279684FF0FF3000F002F9FE
:10068400064A7B681360002300E0012318460837FC
:10069400BD4680BD000000200800002004000020AA
:1006A40080B400AF064B1B781A46064B1B681344F4
:1006B400044A136000BFBD465DF8047B704700BF69
:1006C400080000202800002080B400AF034B1B6802
:1006D4001846BD465DF8047B704700BF2800002023
:1006E40080B485B000AF78607B6803F00703FB60DB
:1006F4000C4BDB68BB60BA684FF6FF031340BB606A
:10070400FB681A02BB68134343F0BF6343F400332E
:10071400BB60044ABB68D36000BF1437BD465DF8B4
:10072400047B704700ED00E080B400AF044BDB684D
:100734001B0A03F007031846BD465DF8047B7047A7
:1007440000ED00E080B483B000AF03463960FB7174
:1007540097F90730002B0ADB3B68DAB20C4997F9AA
:1007640007301201D2B20B4483F800230AE03B683D
:10077400DAB20849FB7903F00F03043B1201D2B249
:100784000B441A7600BF0C37BD465DF8047B7047F6
:1007940000E100E000ED00E080B489B000AFF86053
:1007A400B9607A60FB6803F00703FB61FB69C3F17E
:1007B4000703042B28BF0423BB61FB690433062B06
:1007C40002D9FB69033B00E000237B614FF0FF3259
:1007D400BB6902FA03F3DA43BB681A407B699A40A7
:1007E4004FF0FF317B6901FA03F3D9437B680B4077
:1007F400134318462437BD465DF8047B7047000058
:1008040080B582B000AF78607B68013BB3F1807F34
:1008140001D301230FE00A4A7B68013B53600F2197
:100824004FF0FF30FFF78EFF054B00229A60044B18
:1008340007221A60002318460837BD4680BD00BF52
:1008440010E000E080B582B000AF78607B68072BD1
:100854000FD07B68062B0CD07B68052B09D07B68F6
:10086400042B06D07B68032B03D090210448FFF7A8
:1008740025FE7868FFF734FF00BF0837BD4680BD0A
:10088400481C000880B586B000AF0346B9607A60A2
:10089400FB7300237B617B680F2B03D9A8210E48CF
:1008A400FFF70CFEBB680F2B03D9A9210A48FFF7F9
:1008B40005FEFFF739FF78617A68B9687869FFF750
:1008C4006BFF024697F90F3011461846FFF73AFFBF
:1008D40000BF1837BD4680BD481C000880B582B0F3
:1008E40000AF78607868FFF78BFF03461846083737
:1008F400BD4680BD80B588B000AF78603960002304
:100904007B6100233B610023BB617B68324A9342D5
:1009140017D07B68314A934213D07B68304A9342A4
:100924000FD07B682F4A93420BD07B682E4A9342A8
:1009340007D07B682D4A934203D0AC212C48FFF7A3
:10094400BDFD3B681B689BB2002B04D03B681B6851
:10095400B3F5803F03D3AD212548FFF7AFFD3B68D6
:100964005B68002B35D03B685B68012B31D03B685A
:100974005B68112B2DD03B685B68022B29D03B6848
:100984005B68122B25D03B685B68B3F5881F20D0C9
:100994003B685B68B3F5041F1BD03B685B68B3F529
:1009A400441F16D03B685B68B3F5901F11D03B68B9
:1009B4005B68B3F5081F0CD03B685B68B3F5481F50
:1009C40007D03B685B68032B03D0AE210848FFF7D0
:1009D40075FD0023FB6105E20000024000040240B3
:1009E40000080240000C024000100240001C0240BB
:1009F400A01C00080122FB6902FA03F37B613B6837
:100A04001B687A6913403B613A697B699A4240F0FA
:100A1400E6813B685B6803F00303012B05D03B6868
:100A24005B6803F00303022B44D13B68DB68002BB3
:100A34000FD03B68DB68012B0BD03B68DB68022BD3
:100A440007D03B68DB68032B03D0C0219448FFF731
:100A540035FD7B689B68BB61FB695B00032202FA7E
:100A640003F3DB43BA691340BB613B68DA68FB6993
:100A74005B0002FA03F3BA691343BB617B68BA698A
:100A84009A607B685B68BB610122FB6902FA03F32D
:100A9400DB43BA691340BB613B685B681B0903F025
:100AA4000102FB6902FA03F3BA691343BB617B6871
:100AB400BA695A603B685B6803F00303032B27D0D1
:100AC4003B689B68002B0BD03B689B68012B07D0CD
:100AD4003B689B68022B03D0D1217148FFF7EEFCE1
:100AE4007B68DB68BB61FB695B00032202FA03F3EA
:100AF400DB43BA691340BB613B689A68FB695B00DE
:100B040002FA03F3BA691343BB617B68BA69DA601A
:100B14003B685B6803F00303022B40F098803B685A
:100B24001B69002B6FD03B681B690C2B6BD03B6897
:100B34001B69002B67D03B681B69002B63D03B68A3
:100B44001B69002B5FD03B681B69002B5BD03B68A3
:100B54001B69012B57D03B681B69012B53D03B68A1
:100B64001B69022B4FD03B681B69022B4BD03B689F
:100B74001B69022B47D03B681B69032B43D03B689E
:100B84001B69032B3FD03B681B69032B3BD03B689D
:100B94001B69042B37D03B681B69042B33D03B689B
:100BA4001B69042B2FD03B681B69052B2BD03B689A
:100BB4001B69052B27D03B681B69052B23D03B6899
:100BC4001B69062B1FD03B681B69072B1BD03B6896
:100BD4001B69072B17D03B681B69082B13D03B6894
:100BE4001B69092B0FD03B681B69092B0BD03B6891
:100BF4001B690A2B07D03B681B690F2B03D0DE212E
:100C04002748FFF75BFCFB69DA087B68083253F876
:100C14002230BB61FB6903F007039B000F2202FA39
:100C240003F3DB43BA691340BB613B681A69FB6990
:100C340003F007039B0002FA03F3BA691343BB6191
:100C4400FB69DA087B680832B96943F822107B68CB
:100C54001B68BB61FB695B00032202FA03F3DB43FD
:100C6400BA691340BB613B685B6803F00302FB692C
:100C74005B0002FA03F3BA691343BB617B68BA6988
:100C84001A603B685B6803F44033002B00F0A780D4
:100C94000023FB60034B5B6C024A43F4804303E094
:100CA400A01C0008003802405364534B5B6C03F4EF
:100CB4008043FB60FB68514AFB699B08023352F88E
:100CC4002330BB61FB6903F003039B000F2202FA8C
:100CD40003F3DB43BA691340BB617B68484A934220
:100CE40019D07B68474A934213D07B68464A9342A3
:100CF4000DD07B68454A934207D07B68444A9342AF
:100D040001D1042308E0072306E0032304E00223BF
:100D140002E0012300E00023FA6902F003029200DA
:100D24009340BA691343BB613449FB699B0802339E
:100D3400BA6941F82320374B9B68BB613B69DB43AD
:100D4400BA691340BB613B685B6803F48013002BF2
:100D540003D0BA693B691343BB612E4ABB699360F4
:100D64002C4BDB68BB613B69DB43BA691340BB6155
:100D74003B685B6803F40013002B03D0BA693B693A
:100D84001343BB61234ABB69D360224B5B68BB61DD
:100D94003B69DB43BA691340BB613B685B6803F49E
:100DA4000033002B03D0BA693B691343BB61194A72
:100DB400BB695360174B1B68BB613B69DB43BA6972
:100DC4001340BB613B685B6803F48033002B03D0A2
:100DD400BA693B691343BB610E4ABB691360FB6983
:100DE4000133FB61FB690F2B7FF604AE00BF00BF2C
:100DF4002037BD4680BD00BF0038024000380140A6
:100E0400000002400004024000080240000C0240BE
:100E140000100240003C014080B582B000AF786011
:100E24000B467B8013467B707B88002B04D140F2F9
:100E34009D110E48FFF742FB7B78002B07D07B788F
:100E4400012B04D04FF4CF710848FFF737FB7B78B0
:100E5400002B03D07A887B689A6103E07B881A04AC
:100E64007B689A6100BF0837BD4680BDA01C00089E
:100E740080B586B000AF78607B68002B01D1012378
:100E840018E37B681B680F2B03D9E6219748FFF70B
:100E940015FB7B681B6803F00103002B00F08880BE
:100EA4007B685B68002B0DD07B685B68B3F5803F83
:100EB40008D07B685B68B3F5A02F03D0EB218B4887
:100EC400FFF7FCFA8A4B9B6803F00C03042B0CD04D
:100ED400874B9B6803F00C03082B12D1844B5B688F
:100EE40003F48003B3F5800F0BD1814B1B6803F42B
:100EF4000033002B5BD07B685B68002B57D1012348
:100F0400D8E27B685B68B3F5803F06D1784B1B68F9
:100F1400774A43F4803313601DE07B685B68B3F564
:100F2400A02F0CD1724B1B68714A43F480231360C9
:100F34006F4B1B686E4A43F4803313600BE06C4BB9
:100F44001B686B4A23F480331360694B1B68684A3F
:100F540023F4802313607B685B68002B13D0FFF7B6
:100F6400B3FB386108E0FFF7AFFB02463B69D31AD5
:100F7400642B01D903239DE25D4B1B6803F400330A
:100F8400002BF0D014E0FFF79FFB386108E0FFF777
:100F94009BFB02463B69D31A642B01D9032389E2E4
:100FA400534B1B6803F40033002BF0D100E000BF67
:100FB4007B681B6803F00203002B79D07B68DB6835
:100FC400002B08D07B68DB68012B04D040F21D1194
:100FD4004648FFF773FA7B681B691F2B04D94FF44B
:100FE4008F714248FFF76AFA414B9B6803F00C0388
:100FF400002B0BD03E4B9B6803F00C03082B1CD139
:101004003B4B5B6803F48003002B16D1384B1B6801
:1010140003F00203002B05D07B68DB68012B01D0B1
:10102400012347E2324B1B6823F0F8027B681B69FB
:10103400DB002F4913430B603AE07B68DB68002B2D
:1010440020D02C4B01221A60FFF73EFB386108E0E8
:10105400FFF73AFB02463B69D31A022B01D903235B
:1010640028E2234B1B6803F00203002BF0D0204B33
:101074001B6823F0F8027B681B69DB001C491343DF
:101084000B6015E01B4B00221A60FFF71DFB386153
:1010940008E0FFF719FB02463B69D31A022B01D97A
:1010A400032307E2124B1B6803F00203002BF0D169
:1010B4007B681B6803F00803002B45D07B685B69E1
:1010C400002B08D07B685B69012B04D04FF4AF710F
:1010D4000648FFF7F3F97B685B69002B1ED0064BCB
:1010E40001221A60FFF7F0FA386110E0F81C0008DA
:1010F4000038024000004742800E4742FFF7E4FAFE
:1011040002463B69D31A022B01D90323D2E15E4B79
:101114005B6F03F00203002BF0D015E05B4B002261
:101124001A60FFF7D1FA386108E0FFF7CDFA0246FA
:101134003B69D31A022B01D90323BBE1524B5B6FEA
:1011440003F00203002BF0D17B681B6803F0040357
:10115400002B00F0B0800023FB757B689B68002B9C
:101164000CD07B689B68012B08D07B689B68052B9F
:1011740004D04FF4C5714648FFF7A0F9424B1B6CED
:1011840003F08053002B0FD10023BB603E4B1B6C3C
:101194003D4A43F0805313643B4B1B6C03F0805374
:1011A400BB60BB680123FB753A4B1B6803F4807377
:1011B400002B18D1374B1B68364A43F480731360F5
:1011C400FFF782FA386108E0FFF77EFA02463B69CE
:1011D400D31A022B01D903236CE12E4B1B6803F4B1
:1011E4008073002BF0D07B689B68012B06D1264BC3
:1011F4001B6F254A43F0010313671CE07B689B685F
:10120400052B0CD1204B1B6F1F4A43F004031367BB
:101214001D4B1B6F1C4A43F0010313670BE01A4B71
:101224001B6F194A23F001031367174B1B6F164AF0
:1012340023F0040313677B689B68002B15D0FFF72A
:1012440043FA38610AE0FFF73FFA02463B69D31AD2
:1012540041F28832934201D903232BE10A4B1B6FDD
:1012640003F00203002BEED01CE0FFF72DFA3861E7
:1012740012E0FFF729FA02463B69D31A41F2883299
:10128400934209D9032315E100380240800E4742F6
:10129400F81C000800700040884B1B6F03F0020329
:1012A400002BE6D1FB7D012B05D1844B1B6C834ABB
:1012B40023F0805313647B689B69002B0CD07B68FC
:1012C4009B69012B08D07B689B69022B04D040F2F8
:1012D400CD117B48FFF7F2F87B689B69002B00F087
:1012E400E880764B9B6803F00C03082B00F0A98080
:1012F4007B689B69022B40F08D807B68DB69002B47
:1013040009D07B68DB69B3F5800F04D04FF4EB712F
:101314006B48FFF7D3F87B681B6A012B03D97B6802
:101324001B6A3F2B04D940F2D7116548FFF7C6F872
:101334007B685B6A312B04D97B685B6AB3F5D87F21
:1013440004D94FF4EC715E48FFF7B8F87B689B6AE8
:10135400022B10D07B689B6A042B0CD07B689B6AA1
:10136400062B08D07B689B6A082B04D040F2D91165
:101374005348FFF7A3F87B68DB6A012B03D97B682A
:10138400DB6A0F2B04D94FF4ED714D48FFF796F843
:101394004C4B00221A60FFF797F9386108E0FFF719
:1013A40093F902463B69D31A022B01D9032381E046
:1013B400424B1B6803F00073002BF0D17B68DA69A1
:1013C4007B681B6A1A437B685B6A9B011A437B68D0
:1013D4009B6A5B08013B1B041A437B68DB6A1B06A0
:1013E400364913434B60374B01221A60FFF76CF9FF
:1013F400386108E0FFF768F902463B69D31A022B0B
:1014040001D9032356E02D4B1B6803F00073002B16
:10141400F0D04EE02B4B00221A60FFF755F93861EB
:1014240008E0FFF751F902463B69D31A022B01D9B0
:1014340003233FE0214B1B6803F00073002BF0D122
:1014440037E07B689B69012B01D1012332E01B4B00
:101454005B68FB607B689B69012B28D0FB6803F405
:1014640080027B68DB699A4221D1FB6803F03F026A
:101474007B681B6A9A421AD1FA6847F6C073134014
:101484007A68526A9201934211D1FB6803F44032A4
:101494007B689B6A5B08013B1B049A4207D1FB688B
:1014A40003F070627B68DB6A1B069A4201D0012359
:1014B40000E0002318461837BD4680BD00380240BE
:1014C400F81C00086000474280B584B000AF786023
:1014D40039607B68002B01D1012374E17B681B68B0
:1014E400002B03D07B681B680F2B04D940F25A21D0
:1014F4007B48FEF7E3FF3B68002B19D03B68012BC8
:1015040016D03B68022B13D03B68032B10D03B68EA
:10151400042B0DD03B68052B0AD03B68062B07D063
:101524003B68072B04D040F25B216D48FEF7C6FFF1
:101534006C4B1B6803F007033A689A420CD9694B59
:101544003A68D2B21A70674B1B6803F007033A6813
:101554009A4201D0012336E17B681B6803F0020341
:10156400002B49D07B681B6803F00403002B05D0D3
:101574005D4B9B685C4A43F4E05393607B681B6853
:1015840003F00803002B05D0574B9B68564A43F4DD
:10159400604393607B689B68002B24D07B689B68C6
:1015A400802B20D07B689B68902B1CD07B689B6829
:1015B400A02B18D07B689B68B02B14D07B689B68E9
:1015C400C02B10D07B689B68D02B0CD07B689B68A9
:1015D400E02B08D07B689B68F02B04D040F27E217E
:1015E4003F48FEF76BFF404B9B6823F0F0027B689B
:1015F4009B683D4913438B607B681B6803F00103C0
:10160400002B59D07B685B68002B10D07B685B682B
:10161400012B0CD07B685B68022B08D07B685B686D
:10162400032B04D040F285212D48FEF747FF7B6849
:101634005B68012B07D12C4B1B6803F40033002B90
:1016440019D10123BFE07B685B68022B03D07B6860
:101654005B68032B07D1244B1B6803F00073002B3A
:1016640009D10123AFE0204B1B6803F00203002BD8
:1016740001D10123A7E01C4B9B6823F003027B6884
:101684005B68194913438B60FFF71EF8F8600AE0A2
:10169400FFF71AF80246FB68D31A41F288329342E4
:1016A40001D903238FE0104B9B6803F00C027B6885
:1016B4005B689B009A42EBD10A4B1B6803F007035B
:1016C4003A689A4212D2074B3A68D2B21A70054B62
:1016D4001B6803F007033A689A4207D0012372E0BB
:1016E400F81C0008003C0240003802407B681B687C
:1016F40003F00403002B25D07B68DB68002B18D093
:101704007B68DB68B3F5805F13D07B68DB68B3F577
:10171400A05F0ED07B68DB68B3F5C05F09D07B683F
:10172400DB68B3F5E05F04D040F2C3212848FEF73C
:10173400C5FE284B9B6823F4E0527B68DB6825498F
:1017440013438B607B681B6803F00803002B26D0CF
:101754007B681B69002B18D07B681B69B3F5805F1D
:1017640013D07B681B69B3F5A05F0ED07B681B693F
:10177400B3F5C05F09D07B681B69B3F5E05F04D0A3
:1017840040F2CA211248FEF799FE124B9B6823F4DB
:1017940060427B681B69DB000E4913438B6000F0D9
:1017A40021F802460B4B9B681B0903F00F030A49FF
:1017B400CB5C22FA03F3094A1360094B1B681846F1
:1017C400FEF73EFF002318461037BD4680BD00BF1C
:1017D400F81C0008003802404C1D000800000020DE
:1017E400040000202DE9B04F90B000AF00237B63CC
:1017F4000023FB6300233B630023BB63594B9B68BB
:1018040003F00C03082B0DD0082B00F2A180002B51
:1018140002D0042B03D09BE0534BBB639BE0534BA0
:10182400BB6398E04F4B5B6803F03F037B634D4B16
:101834005B6803F48003002B28D04A4B5B689B0948
:1018440000223B627A623B6AC3F308000021474BE3
:1018540003FB01F2002300FB03F31344434AA0FB00
:101864000212FA620A46BA62FA6A1344FB627B6B9A
:101874000022BB61FA61D7E90623D7E90A01FEF722
:1018840087FC02460B461346FB6353E0354B5B680B
:101894009B0900223B617A613B69C3F3080A4FF05C
:1018A400000B52465B464FF000004FF00001590117
:1018B40041EAD261500102460B46B2EB0A0863EBDF
:1018C4000B094FF000024FF000034FEA891343EA7B
:1018D40098634FEA8812B2EB080463EB09054FF0F2
:1018E40000024FF00003EB0043EA5473E200144695
:1018F4001D4614EB0A033B6045EB0B037B604FF082
:1019040000024FF00003D7E9004529468B02214627
:1019140043EA915321468A02104619467B6B002202
:10192400BB60FA60D7E90223FEF732FC02460B469D
:101934001346FB630B4B5B681B0C03F0030301337F
:101944005B003B63FA6B3B6BB2FBF3F3BB6302E0FC
:10195400054BBB6300BFBB6B18464037BD46BDE8B3
:10196400B08F00BF003802400024F40040787D01AD
:101974002DE9F047089D0E4604460F46002B4AD138
:1019840094468C45B2FA82F260D942B1C2F1200386
:10199400974020FA03F30CFA02FC1F4394404FEAE9
:1019A4001C4E1FFA8CF6B7FBFEF1230C0EFB1177CD
:1019B40043EA074301FB06F098420AD91CEB0303F0
:1019C40001F1FF3780F01581984240F2128102390B
:1019D40063441B1AA4B2B3FBFEF00EFB103344EABB
:1019E400034400FB06F6A6420AD91CEB040400F1EA
:1019F400FF3380F00081A64240F2FD806444023847
:101A040040EA0140A41B00211DB1D4400023C5E9D4
:101A14000043BDE8F0878B4205D90DB1C5E900014B
:101A240000210846F5E7B3FA83F1002946D1B34211
:101A340002D3824200F2F580841A66EB030201208D
:101A44001746002DE5D0C5E90047E2E7002A40F03B
:101A54009380A1EB0C034FEA1C471FFA8CFE012173
:101A6400B3FBF7F607FB1630230C43EA00430EFBE7
:101A740006F0984208D91CEB030306F1FF3802D2A2
:101A8400984200F2D08046461B1AA4B2B3FBF7F08A
:101A940007FB103344EA03440EFB00FEA64508D9B5
:101AA4001CEB040400F1FF3302D2A64500F2B68019
:101AB4001846A4EB0E0440EA0640A5E7C1F120074E
:101AC4008B4022FA07FC4CEA030C06FA01FE20FACA
:101AD40007F426FA07F344EA0E0400FA01F84FEA81
:101AE4001C404FEA1449B3FBF0FE1FFA8CF600FBCE
:101AF4001E3349EA03430EFB06F9994502FA01F243
:101B04000BD91CEB03030EF1FF3A80F08580994555
:101B140040F28280AEF1020E6344A3EB0909A4B241
:101B2400B9FBF0F300FB139944EA094403FB06F6FE
:101B3400A64208D91CEB040403F1FF3068D2A64284
:101B440066D9023B644443EA0E40A41BA0FB02E6B0
:101B5400B4427346B14652D34FD05DB1B8EB0302E1
:101B640064EB090404FA07F722FA01F31F43CC409B
:101B7400C5E9007400214CE7C2F1200120FA01F309
:101B84000CFA02FC26FA01F1964033434FEA1C4753
:101B94001FFA8CFEB1FBF7F007FB1016190C41EA93
:101BA400064100FB0EF68E4204FA02F408D91CEB3F
:101BB400010100F1FF382DD28E422BD90238614445
:101BC400891B9BB2B1FBF7F607FB161143EA0143ED
:101BD40006FB0EF1994208D91CEB030306F1FF380A
:101BE40014D2994212D9023E63445B1A46EA004178
:101BF40036E73946EDE6184602E7F045ADD2BEEBCE
:101C0400020366EB0C060138B146A6E74646ECE74C
:101C1400034698E74046D3E7D6467EE76444023855
:101C240047E708460DE7023E63442DE7F8B500BFD9
:101C3400F8BC08BC9E467047F8B500BFF8BC08BCA9
:041C44009E46704701
:101C4800433A2F68656978616E672E6875616E67BB
:101C58002F524D5F4944452F524D5F5472792F449E
:101C68007269766572732F53544D333246347878DF
:101C78005F48414C5F4472697665722F5372632FD7
:101C880073746D3332663478785F68616C5F636F44
:101C9800727465782E630000433A2F68656978612D
:101CA8006E672E6875616E672F524D5F4944452FE8
:101CB800524D5F5472792F447269766572732F534F
:101CC800544D3332463478785F48414C5F447269EA
:101CD8007665722F5372632F73746D33326634785E
:101CE800785F68616C5F6770696F2E630000000041
:101CF800433A2F68656978616E672E6875616E670B
:101D08002F524D5F4944452F524D5F5472792F44ED
:101D18007269766572732F53544D3332463478782E
:101D28005F48414C5F4472697665722F5372632F26
:101D380073746D3332663478785F68616C5F726390
:101D4800632E63000000000000000000010203048D
:041D58000607080969
:081D5C0018FCFF7F01000000EC
:041D64003102000840
:041D68000902000864
:0C1D6C000024F400100000000100000042
:04000005080005AD3D
:00000001FF
